S0120000506F6D656C6F436F72652E737265631D
S214002000105300202572000021720000217200008B
S21400201000000000000000000000000000000000BB
S2140020200000000000000000000000002172000018
S2140020300000000000000000217200002172000075
S2140020402172000021720000353D0000BD35000001
S2140020502172000021720000A16A000021350000F4
S214002060F54B0000054C0000154C0000254C000008
S214002070354C0000454C00007155000081550000AD
S214002080915500002556000035560000000000005F
S21400209000000000455600009D300000F92C0000AE
S2140020A0213400002172000021720000217200001D
S2140020B00000000010B5064C2378002B07D1054B16
S2140020C0002B02D0044800E000BF0123237010BD9F
S2140020D0C00200200000000000E80300084B10B516
S2140020E0002B03D00749084800E000BF07480368F4
S2140020F0002B00D110BD064B002BFBD09847F9E70C
S21400210000000000C402002000E8030000E803000E
S2140021100000000082B0EFF310835A42534101934F
S21400212072B6BFF35F8F0022024B1A70019802B09E
S2140021307047C046EC0000200023A1200D490E4A3F
S2140021400B7013800D4A1070813850701E38D08086
S214002150E120938053801381094A40021371537122
S214002160083393710B7810600133DBB201200B70DB
S2140021707047C046E70200207605002008080020C9
S214002180E0020020024A1378013BDBB2137070476E
S214002190E7020020044A1378013BDBB21370137881
S2140021A00022024B1A707047E8020020DE02002070
S2140021B0002070470020704770470000002805D0B8
S2140021C00122034B1A70BFF35F8F62B67047C0469A
S2140021D0EC0000206021124B1A7850B20A4000280A
S2140021E00DDA0020202A13D15A78212A10D1DA8855
S2140021F0072A0DD10B499A819960012008E000203A
S214002200202A05D15A78202A03D0223A504250413B
S2140022107047DA88072AFBD103491961EAE7C04606
S21400222064310020E0020020B9210000F7B5364BEB
S2140022301B78002B23D1354B9847354E354B3488C9
S214002240002800D0344B9847844218D0334B984728
S214002250334B344A1C780700E4B263009B5A002BC9
S21400226016D1314D2B8801332B80284B98470028F8
S21400227006D12B88632B03D838002C4B9847F7BD24
S214002280224B9847002803D0294B2A889A42F3D934
S2140022900022254B1A80274B1B7893422DD1634290
S2140022A063411F4ADBB213700123174A38001370CC
S2140022B01E4B98471B4B6700DB5B1D00413DFF3DF7
S2140022C06A1E9541A022EDB25200934219D00F4BE0
S2140022D09847114B002800D10E4B98473080A0221B
S2140022E05200544314490F4B144ADB5B12190091F9
S2140022F0134C29008120A047C1E762425441E4B252
S214002300D2E700233380EAE704080020E55F0000F8
S21400231002080020E95F0000F95F000015210000B8
S21400232000080020FC070020DC020020BD21000081
S2140023301F03000078050020512300007C050020C4
S2140023407962000010B5014B984710BD2D220000A1
S21400235010B500280CD1074B1B785A425341064A49
S2140023605B009852054B1870054B1870054B984744
S21400237010BDC04600080020FC070020780500209D
S214002380040800202D22000070B5074B9847074B25
S214002390074A1D88074BADB21B785B009C5A064B5C
S2140023A0A4B29847601B70BD15210000720500207E
S2140023B06C05002070050020BD21000010B5034B01
S2140023C09847431E9841C0B210BDC04689230000FE
S2140023D0F7B5174B98471749174B0C781D78E4B29A
S2140023E0EDB2002D06D1154E154A630037889B5A6C
S2140023F09F4203D2134B98470020FEBD35806342B0
S21400240063410126DBB20B700B4B1E700D4B9847D9
S21400241028000D4B9847A0235B005C430B4A310015
S21400242014190B4A0220009222000A4CA047E4E747
S214002430152100007005002074050020720500209C
S2140024406C050020BD210000BD230000EC0200202A
S214002450E12400007962000070B50024134B144D8F
S2140024602C701C70134B1C70134B1C70134B1C8071
S2140024705C80134B1C80134B9847134B1C70134BFC
S2140024801C70134B1C805C80124B1C80124B9847B0
S214002490A04209D02B780133DBB22B702B78DBB24D
S2140024A0012B01D10D4A137070BDC04604080020F0
S2140024B0E80200207805002000080020FC07002025
S2140024C0020800202D220000740500207005002060
S2140024D06C05002072050020D1230000DE020020DB
S2140024E013B503001000002B10D10D4A1278544289
S2140024F06241D2B200290AD14133FF335A43094917
S214002500094C8A18094900910121A04713BD0848C3
S21400251089B252001152074A1370074B9847F5E7E5
S21400252070050020EC02002079620000E124000023
S2140025306C05002074050020D123000010B5002093
S214002540014B984710BDC046BD230000F7B51A4B97
S21400255000269B79093B5A425341DBB20093174B46
S2140025609847174B174F3C881D78174BEDB26A00FB
S214002570D35AA4B29BB20193144B9847019B9C423A
S21400258007D3134B1B78DBB2002BE8D11E003000BC
S214002590FEBDA0235B005D430E4B5D192B5D013431
S2140025A01E43A4B20C4B3C809847009B002BEED0F9
S2140025B0002336020093D2E7E00200201521000037
S2140025C070050020720500206C050020BD2100006B
S2140025D0DE020020EC020020D123000010B500200F
S2140025E0014B984710BDC0464D25000070B5114BF5
S2140025F098471149114A0B78DBB25C00A45AA02216
S214002600520094420FD10E4A1278002A0BD10D4D7B
S2140026102A78D2B2002A06D101242C705C4263418B
S2140026201400DBB20B70084B9847A0204000001B3C
S21400263070BDC0461521000000080020FC070020E1
S2140026400408002078050020BD21000010B5034BCB
S2140026509847431E9841C0B210BDC046ED25000005
S214002660F7B51D4B9B79092B00D152001400009141
S21400267000201A4B9847002805D1194B1B78002BD1
S214002680F6D12000FEBD174B9847174B01901D78DA
S214002690164BEDB26A00D75AA0235B00DB1B260060
S2140026A09C4200D91E00A0235B006B431048DB1938
S2140026B0C018320000990F4B98470C4B6D00BF199D
S2140026C0EF5201980C4B9847009BA41B9B19009354
S2140026D0002CCDD1D5E7C046E00200204D260000F4
S2140026E0DE0200201521000000080020FC07002064
S2140026F07C050020199A0000BD21000010B5034B90
S21400270058887F231840024B984710BD643100203C
S214002710F1630000F0B5164B1B78002B01D10020AA
S214002720F0BD144B1B681B681A798242F7D9124C0D
S21400273001262360DA789D7812022A4300259A182B
S2140027409A4203D8002DEAD02360E8E75F78042F8A
S2140027500AD19F78874207D1DF788F4204D1002DB7
S21400276000D023600120DBE71D785B193500E7E722
S2140027701C0800202008002024080020094B1B68A5
S2140027801B68DA78997812020A439B180278801838
S214002790984201D3002004E04278042AFAD0052AA1
S2140027A0F4D170472008002070B5104B05009847FC
S2140027B0002801D1002070BD0D4B1C6820000D4B79
S2140027C09847041E0AD04279037912021A43C17848
S2140027D0094B807898470028F0D1EBE7074BAD000F
S2140027E01B685B68EB581B689847E4E715270000F2
S2140027F0240800207D2700005D60000020080020DF
S21400280070B50021104D0400A847002802D100250D
S214002810280070BD0D4BA2001B685B68D658F36895
S214002820984701002000A847051EF0D0084B1C68FA
S2140028302000084B9847041E03D08078064B984724
S214002840F6E773689847E3E715270000200800209E
S214002850240800207D2700000960000010B5014B09
S214002860984710BDBD64000070B50B4D00242B7852
S214002870002B0AD1002301222B70084B1A8070BD52
S2140028802000074B98470134E4B2064B1B681B68D0
S2140028901B79A342F4D8EDE71C080020120800209C
S2140028A0012800002008002010B5024B9847024B74
S2140028B0984710BD216500006928000010B50B4B35
S2140028C000241B78002B09D110BD5B68A200D358EA
S2140028D01B69002B00D098470134E4B2044B1B68F8
S2140028E01A681279A242F0D8EEE7C0461C0800200B
S2140028F020080020F8B50023AA4CA3812361636159
S214002900237858B2002805DAE288002A02D100258A
S2140029102800F8BD6021194020D11F22002800DBC6
S214002920CCE0E588002D19D0134000D08CE0637809
S214002930062B0CD0082B00D17FE0002B0ED1022DE9
S21400294012D129009848994B98470125E0E76088FE
S214002950050A022D3DD029D8012D34D01F22237818
S2140029601340012B00D166E11F2223781340022B6F
S214002970CDD18F4B00241B78002BC8D08D4B1B6805
S2140029801A681279A242C2D95B68A200D558EB68D1
S2140029909847894B0100200098470028B7D0AB68BD
S2140029A098470028D1D10134E4B2E7E7032D27D0B9
S2140029B00F2DD3D1814B98680028D5D0C178837865
S2140029C00902194302E07D4B18680178774B984757
S2140029D010E07A4BC0B21A68527C8242C4D95B6857
S2140029E0C000C058C1788378090219436F4B9847D6
S2140029F0A3685D70E388A2899A42A6D9A381A4E75A
S214002A00C0B20328AAD80AF09BFE15003B010400BA
S214002A103E0104216A4A00236A485D00D65C4519D7
S214002A2001336E80DDB2A942F7D849000231017049
S214002A3089B2CBE704216448C8E7012D94D1290068
S214002A405B485A4B984763E7012B22D163780A2BE1
S214002A5084D1012D00D0EEE0554B1B78002B00D121
S214002A60E9E0544B26791F683B681B79B34200D8CF
S214002A70E1E03000504B9847051E00D16EE77B68BA
S214002A80B600F358DB689847504B012118701800C1
S214002A90D7E7022B00D061E76378002B00D05DE714
S214002AA0022D00D060E74A4B20799847494B290011
S214002AB0188018003D4B9847013D29E7134053D135
S214002AC060780138082800D948E70AF02FFE100081
S214002AD047FF47FF47FF090047FF47FF47FF1E0026
S214002AE0E388002B00D03FE73B4B23612DE7E388CC
S214002AF0002B00D038E76588012D00D034E702218E
S214002B00294A13888B43138002E7E588002D00D0FE
S214002B102AE7324B9847002800D11FE7274FA278B4
S214002B203B685B7C9A4200DD18E72D4B9847A378FC
S214002B301F4A1370002B00D107E72A4A1D4E9B1828
S214002B407A68DB00D318336033681B681B79AB42A6
S214002B5000D8FAE600212800234B9847002800D129
S214002B60FCE60135EDB2EFE7012B41D163780B2B84
S214002B7000D0F3E6E388002B5DD10D4B1B78002BCD
S214002B8059D02679194B300065889847002800D11F
S214002B90E4E6E9B23000144B9847002800D0D4E6AB
S214002BA0DCE6C046643100201208002011640000F4
S214002BB01C080020200800201527000034000020F4
S214002BC0D3000020B4000020C80000201808002011
S214002BD02961000014080020FD26000001640000A2
S214002BE069280000FFFFFF1FA9270000012800003A
S214002BF0022B00D0B2E66378012B10D0032B00D056
S214002C00ACE6E388002B00D0AEE66388002B00D04D
S214002C10AAE620791D4B984720791D4B09E0E388EA
S214002C20002B00D0A0E66388002B00D09CE620791D
S214002C30184B9847B1E7184B1B78002B00D193E64A
S214002C40164B25791E6833681B79AB4200D88BE695
S214002C5000212800124FB847002800D184E6736888
S214002C60AA00D658F368984701002800B8470028FD
S214002C7000D179E6B3689847002800D065E673E689
S214002C800621084AC7E60821074AC4E6A95F0000ED
S214002C903D6100003D6200001C0800202008002066
S214002CA015270000CC0000209409010070B501260D
S214002CB0104B8000C4582368227E657E9B791540A1
S214002CC01D40354204D063682000984723689E71F3
S214002CD00226354204D0A3682000984723689E71D8
S214002CE01026354204D063692000984723689E71F9
S214002CF070BDC046B42E002010B50020014B98478A
S214002D0010BDC046AD2C00000368188C431E9841C9
S214002D10C0B2704730B59BB002AD040060220A49CD
S214002D2028000A4B9847132C0BD80023A40001A9AF
S214002D3060594B70CB708B7001330B70C0B2044B74
S214002D4098471BB030BDC046A0090100199A000084
S214002D50D95400000020704701220271C02252019F
S214002D60C280020000232A32037043708370C3704F
S214002D7003830362C361037243728372C372037375
S214002D801370421D43738373C37303610375D37754
S214002D90C384038543757047F0B50D000600AC4B41
S214002DA0080085B0140098470823AA4A3560116ABF
S214002DB007000B4313622B780520DB0700D5D8E00D
S214002DC03000A54B98470028FAD12B781C309B077B
S214002DD000D5CEE063783371002B04D19F4A0433CC
S214002DE0D1690B43D3619E4ABF00BE502200002328
S214002DF02A323383B360F3603361B376F376337786
S214002E00009212789A4203D1227B9A4200D1013373
S214002E107377237803A90B701E20924B3768984768
S214002E201E20914B98472079904B9847E0888F4B0F
S214002E30984700250123AB4022691A4202D0280099
S214002E408A4B98470135142DF4D1637BA27B9B01F6
S214002E50D2011343DBB23B70237D6278DB01134360
S214002E60DBB2BB70E578302D00D18FE009D8102D8D
S214002E7000D188E0202D00D188E0002D0BD12B005A
S214002E8082E0322D09D000D282E0332D00D176E0E8
S214002E90342D00D16FE017206BE0042310250222AA
S214002EA0702112010A4013433B7330006A4B984767
S214002EB00028FAD1627D3F2AEDD8E37BDB0113437D
S214002EC0DBB27B733000644B98470028FAD1A378B6
S214002ED07B70631D0193DB7F227BDB0092001A432D
S214002EE0E37A1343A27A520013432B437B813000CC
S214002EF0594B98470028FAD1238B002B06D0102D6B
S214002F0000D182E046D8002D00D176E07A891343BE
S214002F107B813000504B98470028FAD1A38BFB8169
S214002F2030004D4B98470028FAD1238C3B82300066
S214002F30494B98470028FAD12379E28813433B810E
S214002F403000454B98470028FAD1009B1B78FB7051
S214002F5007233B71019BDB7F002B5ED1E021002025
S214002F60434BC9001B681A029B060A405B0F1343BB
S214002F70BB8505B0F0BD627A237A102590E706235C
S214002F80102501228CE70823002289E70023FBE7AF
S214002F900223F5E7202D17D0302DB7D1E27AE1696C
S214002FA0002A09D00A008032FF2A00D973E7226A75
S214002FB08032FF2A00D96EE7FF2900DD6BE7226A20
S214002FC0FF2A00DD67E7A1E7E17A2A4A00290BD04D
S214002FD08020E16980000918914200D95BE7216AE8
S214002FE00918914200D956E7E169914200DD52E79F
S214002FF0216A914200DD4EE788E7E17A1E4A002901
S214003000F2D08020E1690001E5E7E17A1B4A002959
S214003010EAD08020E1690002DDE7E38C164DAB4282
S21400302000D938E77B8230000B4B98470028FAD14E
S2140030308023228D1B01D3189BB2AB4200D92AE70E
S214003040BA823000044B98470028FAD186E7C0467B
S214003050552D000000040040092D0000001400401B
S214003060B82E002001540000A1530000152D0000CA
S21400307020608000FF030000FF0F0000FFFF00003D
S21400308003681A8C002AFCD10222197E0A431A769B
S21400309003681A8C002AFCD17047000070B5284BD4
S2140030A01C6823689A795D7915400122154218D06C
S2140030B09A7161698B1C636123689B8C9BB20B8041
S2140030C0238B013B9BB22383002B29D0637F002BED
S2140030D007D02368DB795BB2002B02DB2000194B9C
S2140030E0984704231D420BD022689371E27E023B70
S2140030F01A4205D0A27E1A4202D02000E368984702
S21400310002231D420BD022689371E27EDB181A421E
S21400311005D0A27E1A4202D023692000984770BDCF
S21400312021680A71217F0529DBD12377E37E1342CC
S214003130D7D0A37E1342D4D02000A3689847D0E708
S214003140B82E002081300000802337B5104A0500D5
S214003150116A104C0B431362012322781A43227023
S21400316022781A42FCD12B7801A90B7022200A4B38
S21400317098470A4B222098476A784023002A03D0B3
S21400318022781343237037BD22789A432270FAE7D9
S21400319000040040001C004301540000A15300003E
S2140031A00023037043708370C3700371437183718F
S2140031B0C37103727047000070B51A4A052314786D
S2140031C0A4072DD44B785C1EA3419C058B78002B5E
S2140031D002D080239B031C43CB78002B02D0802395
S2140031E05B031C43CB79002B01D080231C43F026C5
S2140031F00B780D7A1B062B430D7936012D023540D0
S2140032002B434D7989792D072D0C2B43F025090486
S2140032102D0329400B430230234380001350002324
S214003220180070BD001C0043034B8000C01802232A
S2140032308268134383607047001C004303689868E5
S214003240431E9841C0B270470023062203704270A6
S21400325083707047802373B51600164A0160050018
S214003260D0695B010343D3610B781C209B071FD4F6
S21400327001230C7817381C401AD1B37801A90B70BB
S2140032801B300D4B984720200C4B984720006C7144
S214003290AC713278737813432A68537073782C6253
S2140032A02B71074B6C62AC62EC622C636C631D6026
S2140032B076BDC0460004004001540000A153000043
S2140032C0BC2E002070B5050004682800044B984703
S2140032D00028FAD1012322781343237070BDC0461C
S2140032E03D32000070B50500046828000F4B984773
S2140032F00028FAD102232278134323702B79062B59
S21400330004D10B4A023BD1690B43D3610223A28945
S2140033101A4204D0013BE2791A42FCD070BDE28921
S2140033201A42FBD0E2791A42FCD0F7E73D320000A1
S2140033300014004070B5050004682800054B984747
S2140033400028FAD10F2302222371A3712378934316
S214003350237070BD3D320000002308220370837086
S214003360C37002334270037170470000002373B5C8
S2140033700C0001A9060015004B70CB708B709C42A8
S2140033801ED1022001330B70104B98472B786978BA
S21400339032681943AB78002B01D040231943EB78F1
S2140033A0002B01D080231943F0202B7900011B024B
S2140033B0034004340B4364009BB21419A38073BD0E
S2140033C0012CE3D10C700520DEE7C046D95400007E
S2140033D04B000168C91802238A8913438B81704702
S2140033E002224B000168C9188B8993438B81704772
S2140033F0F8B507000C00160005683800074B98471C
S2140034000028FAD13F197B7908346400002B03D0DA
S2140034102D19AE800020F8BD6653FBE73D32000054
S21400342070B53D4B1C6801232568AA791A4206D060
S214003430AB71637E002B02D00020636A984702239C
S214003440AA791A4206D0AB71237F002B02D0002047
S214003450236B98470423AA791A4206D0AB71237EC1
S214003460002B02D00020236A9847238A002B21D005
S214003470A38A9BB25A1C92B2A282A2685B00D3189F
S2140034801B889BB2AB82238A013B9BB22382208A95
S21400349080B200280ED1230038331870042380220F
S2140034A02B71AB711D4B5204DA67A37E002B01D043
S2140034B0A36A98470823AA791A4206D0AB71E37E1E
S2140034C0002B02D00020E36A9847638A002B21D0A5
S2140034D0E38A9BB25A1C92B2E282E2685B00D3187F
S2140034E01B889BB2EB82638A013B9BB26382608A35
S2140034F080B200280ED123003933187008238022AA
S2140035002B71AB71054B5204DA67637F002B01D039
S214003510636B984770BDC046BC2E002004E100E0F7
S214003520862270B50A4CD2059369A16825690B43BB
S214003530A360084B9361002D04D1E268A36893430F
S214003540A36070BD28686B689847AD68F3E7C0460F
S214003550D8000020FF0FFF0F012305490A6A1A430F
S2140035600A628622D205137011781942FCD1704780
S2140035700004004010B51723002A06D1064B890028
S214003580CC58002C03D1C8502300180010BD1300DF
S2140035908442FAD01D23F8E7C42E00201723002902
S2140035A006D11F2806D8163B8340034A13610B003A
S2140035B0180070470961FFDE00240040042170B542
S2140035C0104A536915000B4006D00F4B51619B689B
S2140035D0002B00D0984770BD01260C4C2370237832
S2140035E00F2BF8D832009A406969114206D06A61FA
S2140035F0054A9B009B58002B00D098472378013340
S2140036002370ECE700240040C42E0020C02E0020CB
S2140036100123044A18005168890700D450681840EE
S2140036207047C04600240040022310B5044A1178B3
S2140036300B431370034B98470028FBD110BDC046C0
S2140036400024004011360000022110B5044A137809
S2140036508B431370034B98470028FBD110BDC04620
S2140036600024004011360000802313B5134A9B0047
S214003670516903200B435361002301A90B70104BC3
S214003680984703200F4B984701220F4C21780A4396
S21400369022700E4B98470028FBD1102223789343C4
S2140036A0020023700A4B1A5004304028FBD108222F
S2140036B0084B1A60084B984713BDC04600040040EC
S2140036C001540000A1530000002400401136000001
S2140036D0C42E002000E100E029360000012200236D
S2140036E002729218036043608372C272437270471C
S2140036F0F7B50C0000261B4B05009847237901A957
S2140037004E70CE700B70237A20788B70164B9847CD
S21400371031001F2D00D815490722A37A2A409200AF
S214003720E67A002B01D008231E430F2796409740C9
S2140037303200EB089B00CB18D869B8430243DA6125
S214003740627A0123002A06D0AB408A6913438B6154
S214003750074B9847F7BDAB40DB4388699BB20340F5
S214003760F5E7C04649360000D95400000024004062
S21400377029360000024B187D012318407047C046CA
S21400378000400041042370B51C4A1D4D9169040099
S2140037900B4393612023FF332B831A4B9847030078
S2140037A00520002B28D0C0221E21237892001B0261
S2140037B01340A27852000A40802113436278C9025F
S2140037C0D2011343E27892040A40C02113432279BF
S2140037D0890212040A40082113436B60AB680A4A48
S2140037E05B035B0F99401180AB685380637813715D
S2140037F0288BC005C00F000170BDC0460004004005
S214003800004000417537000028080020F7B52B4A15
S2140038100D005388118804004B43AB420BD2802224
S214003820274B9201EB18934205D9264B264AEB18F4
S2140038301820934212D8254E7368370001938023D0
S214003840019ADB02134373602023FF333383204B3C
S2140038509847002803D1019B05307360FEBD1A2CE3
S21400386005D00ED8042C02D005D8022C05D1AD0800
S2140038706D00FD610EE0062C18D9019B17207B60B9
S214003880ECE7412C04D8402CF1D21C2CF5D1EEE705
S214003890452CF2D8A5231B021C433C800C4B9847B2
S2140038A00028FBD0019B00207B60D7E7338BDB052D
S2140038B0DDD5019B10207360D0E7C04628080020A5
S2140038C000C07FFF0000C0FFFF1F00000040004157
S2140038D075370000F7B5294F019115003B887A88A7
S2140038E004005A43824233D22549264861181822DA
S2140038F081422BD8173A591E009218220C4225D125
S214003900013AAB4222D3204B9847052200281DD00F
S2140039101E4E1F4B33801C4B98470028FBD020239D
S214003920FF333383002362085200681EAB4211D374
S21400393000223B79934209D13F2D07D80099154BB9
S214003940914217D021001C20984702001000FEBDAF
S2140039500022D0E70199C95C834205DB89B20233B5
S21400396011809BB20232E1E7019EF61876783602A5
S2140039703143F4E721000420E6E7C046280800208B
S2140039800000C0FFFF1F0000753700000040004128
S21400399044A5FFFF0D380000F8B51A4B16001A882C
S2140039A05B88050053430F00834205D2164917482B
S2140039B069181823814216D8541E2C401823002C50
S2140039C011D1013BB2420ED3114B98470523002874
S2140039D009D020220F4BFF326D081A836D00711E2E
S2140039E0A64202D800231800F8BD2B889BB23B5590
S2140039F08C4202DA3A191B0A53700234A4B202351A
S214003A00EEE7C046280800200000C0FFFF1F0000A9
S214003A10753700000040004170B5194A040013884D
S214003A2052885A43824207D2164A1749A2181820CB
S214003A3001268A4201D970BD00269B00013B182052
S214003A401C42F8D1114DA84703000520002BF2D0E8
S214003A5020220F4BA4086400FF321A83DC611C008E
S214003A60002E0BD10B4B2380A8470028FCD01C232C
S214003A70208B1840431E98418000DCE7064BF2E797
S214003A80280800200000C0FFFF1F00007537000058
S214003A900040004102A500001AA5000007B58022DC
S214003AA001AB1A700A785A704A789A708A781900A8
S214003AB0DA70014B984707BDD954000003681869AF
S214003AC0431E9841C0B27047042270B50400084BEC
S214003AD006681A602000074DA8470028FAD102237E
S214003AE03288134333802000A8470028FBD170BDDE
S214003AF000E100E0BD3A0000042270B505000A4B64
S214003B000468DA672800094EB0470028FAD1022276
S214003B10074B2381A3812388934323802800B04743
S214003B200028FBD170BDC04604E100E0BD3A0000AD
S214003B30FF81FFFF70B50A4B040006689847002314
S214003B40A386E3862000074DA8470028FAD1012364
S214003B503288134333802000A8470028FBD170BD6D
S214003B60F93A0000BD3A0000F8B505000C000768F9
S214003B7028000B4EB0470028FAD12B79002B08D02E
S214003B801720012B04D1BC612800B0470028FBD1C8
S214003B90F8BD044B17209C42FAD8A4B23C83F3E746
S214003BA0BD3A0000FFFF000070B504000568200065
S214003BB0064B98470028FAD12379002B03D0012B17
S214003BC000D1A86970BD288B80B2FBE7BD3A000023
S214003BD0F8B506000D00140007683000104B984733
S214003BE00028FAD13379002B0DD0012B16D11730CF
S214003BF0012C07D80834A400E5513000084B98473C
S214003C000028FAD1F8BD1720022CFBD8054B9D42A0
S214003C10F8D81034ADB26400E553EEE71A20F1E7A9
S214003C20BD3A0000FFFF0000F8B58023042614000C
S214003C3005001E4A016051695B000B4353611C4B33
S214003C401E611C4B9847A3782B711B4B1D60227975
S214003C502188D2032B680A4392B21A80A278002ADF
S214003C6013D01720012A0FD11A8892B21A80E27850
S214003C70002A03D0802219880A431A800022A168ED
S214003C8028000E4B98470020F8BD1A8817201643C8
S214003C901E80E678002EF7D13200A1682800074F74
S214003CA0B8470122E1682800B847ECE70004004066
S214003CB000100040353B0000042F0020D13B0000E0
S214003CC00A2A09D0072A07D90379002B0FD0012B1F
S214003CD00FD11633092A0DD8931C9B0019500123C7
S214003CE09340818E0B439BB28386002302E00A2A10
S214003CF0F2D917231800704710B502680A2908D1B0
S214003D000B4B538101238B40C28E13439BB2C38659
S214003D1010BD0123072902D88B409BB2F1E70C00A7
S214003D20083CA340C0241B02A4002340E9E7C04689
S214003D300080FFFFF7B5214B1C68E38EA28E266835
S214003D401A400092B38975891D402BB2002B07DA02
S214003D5013005B0501D5236B9847194BB381F7BD5C
S214003D60EBB2002B15D000270123BB4001932B425A
S214003D7008D0009B01223B41134203D0BB1C9B0092
S214003D801B5998476B469B880137B381082FEBD1A8
S214003D90E5E780277F003D4206D0009B3B4201D0EE
S214003DA0A36A9847B781DAE78027BF003D42D6D09E
S214003DB0009B3B42F6D0E36AF3E7C046042F0020A0
S214003DC00080FFFFF0B5002489B0009201933F23E6
S214003DD0002600272500069007910393039A134BAD
S214003DE0012000219847B6197F41069B079A034099
S214003DF00A4004960597134303D0012333431E005D
S214003E00059F019BBB4209D802D1009BB34205D84F
S214003E10009A019BB61A9F4104430D43039B5A1E0A
S214003E200392DBD22000290009B0F0BD41DA000081
S214003E3010B54908040000234020A14201D210BD5D
S214003E400300581C091B80B28C42F9D94020FF2B76
S214003E50F5D813800020F2E7F0B585B01E000AAB57
S214003E600D00197803004B4303924027AB4217D846
S214003E70002E18D10200330008001B4C3100A0476A
S214003E802A0001003300194C3000A047002201230D
S214003E90121A8B41140C180404430027039B1C8041
S214003EA0380005B0F0BD0024012EF6D10A0023002C
S214003EB021000D4EB047009001910B00020021003A
S214003EC028000A4CA047802306009B019842E7D8AA
S214003ED0009A019B690FE800A047F400041BE4B2B7
S214003EE064033443D9E7C04605DC0000C53D000046
S214003EF037B50D4C05002378002B01D000290CD0D7
S214003F0001A91120094B0D7098471120084B9847BE
S214003F1001230020657023703EBD63780800AB4225
S214003F20FAD01D20F8E7C0462E08002001540000F5
S214003F30A1530000394A030000B50800934234D06C
S214003F4008D88422D205934214D0354A93421FD013
S214003F50002317E0334A93423AD0334A934244D080
S214003F60324A9342F4D1002303290BD809F0D4FB3C
S214003F70502A2C2E0023032904D809F0CDFB430237
S214003F8005072B4B180000BD2A4BFBE72A4BF9E729
S214003F9000230329F6D809F0BFFB37020406274B97
S214003FA0F0E7274BEEE7274BECE700230329E9D899
S214003FB009F0B2FB2C020406234BE3E7234BE1E7B0
S214003FC0234BDFE7234BDDE7234BDBE7234BD9E728
S214003FD000230329D6D809F09FFB1D020406204BB8
S214003FE0D0E7204BCEE7204BCCE700230329C9D8E7
S214003FF009F092FB120204061C4BC3E71C4BC1E7F8
S2140040001C4BBFE71C4BBDE70323BBE71B4BB9E7C5
S2140040101B4BB7E71B4BB5E71B4BB3E7000800424B
S214004020000400420010004200040043000C00425E
S214004030030005000300060003000700030001005C
S21400404003001E0003001F000300090003000A000F
S21400405003000B000300110003001200030013000E
S21400406003000D0003000E0003000F0003001700FE
S21400407003001800030019000300040003000800F2
S2140040800300100003000C000300160070B586B095
S2140040906946094B6A4670CB70C170CB70C100236D
S2140040A099005158814202D1D8B206B070BD013392
S2140040B0062BF5D10020F8E7000A01000368187EF9
S2140040C00123184070470368187E4007C00F7047EA
S2140040D070B5064B0C00056898470523002803D0EA
S2140040E00023E405E40DAC62180070BDBD4000007E
S2140040F070B50D4B06000C00056898471022002886
S2140041000DD00423698B0022194201D06B831E3226
S214004110B379012B05D1AB6ADB05DB0D23801000DC
S21400412070BDAB6ADBB2F9E7C7400000F0B505002A
S21400413029600E0014000A68022187B01C230A4278
S21400414000D0D3E001273268173B3A4200D0CDE0DA
S2140041506E4B300098476E4B052800D1C9E087406B
S2140041600200D96912320F43DF616946631DDB7FA7
S214004170D7B20B703800674B98473800664B9847A5
S214004180631DD87F0021654B98472378012B03D108
S21400419032680B33134333602378002B03D1326825
S2140041A00833134333602B002A0000260C332832D2
S2140041B040C39A42FCD12B003633AE86EE622E8682
S2140041C0AE621E705E709E70032328686B724F4B43
S2140041D02E7198470700524B52499847524BBF00E2
S2140041E06A46FD50802313710123937123782F684C
S2140041F05671D671002B00D196710026A36A0293E1
S214004200E36A0393236B0493636B0593B30002AADC
S2140042109858F1B2002802D13800444B9847431C06
S21400422006D06B461871000CC0B201A9404B9847E7
S2140042300136042EEAD123786B71237CAB71A37C04
S214004240EB71237D2B726B469E1C002333802378F4
S214004250012B10D12D4B286898471230354BC0B231
S2140042609847354B01003200A0699847172300286D
S2140042703CD133783B732378002B43D1E17FA57F75
S2140042807B6A090429431943A069A28B631C7962DF
S214004290DB7F002B33D11300A16862680A43E16814
S2140042A00A43217C02430B43617C002903D1234946
S2140042B08978890701D580210A43A17C002902D08C
S2140042C0802189020B43E17C002902D080218900ED
S2140042D00B43217D002902D0802189010B433968D8
S2140042E00A433A607A6813437B600023180007B0DD
S2140042F0F0BD02211A6A0A431A62182235E74023E3
S2140043001343C9E700231800C6E7C0468D400000E7
S2140043100004004001540000A1530000F13E0000DC
S214004320914B0000D14300000C2F0020353F0000C9
S214004330D954000025540000313E00000020004102
S214004340F7B50191C379040017001C20002B28D074
S214004350230038331B781738834222D06379174EF0
S214004360002B14D02000B0470028FBD0144B019936
S214004370200098476379134E002B1CD02000B047CE
S2140043800028FBD0390020000F4B984709E00F4D5E
S2140043902000B0470028E5D1013DADB2002DF7D191
S2140043A01220FEBD013DADB2002DF9D02000B04771
S2140043B00028F7D0E2E7054DF8E7C046BD4000000C
S2140043C0D1400000C7400000F14000001127000067
S2140043D0F8B57C4B8000C4582300220037333632B1
S2140043E025681B7816781E402B7EAF7D1F40FB0786
S2140043F039D562791300012A33D1637A002B0DD1A7
S214004400714B1B88AB62638E013B9BB26386638EE7
S214004410002B00D12A756379012B22D1637A002BF9
S21400442021D0E16A2268481C0B78E062A079DBB2F2
S214004430012800D174E09BB2DB05DB0D9362A38EEE
S214004440013B9BB2A386A38E002B0CD101332B75A8
S214004450637A012B07D1E379002B04D10233AB75C5
S21400446001E0002BDAD004210F4215D06B8B0B42F3
S2140044705CD0637A012B0CD023001E2238331A70CE
S2140044800323637202332B75330702D52000A3691A
S2140044909847AB6A04236B830222174227D06379BE
S2140044A0002B0ED1072129752A760132627222006E
S2140044B03832A38623861370F30602D52000E369FC
S2140044C098476379012B12D1637ADBB2012B0ED1A8
S2140044D0E279002A0BD1022129750131617221008F
S2140044E038310A701E4202D02000E368984708233D
S2140044F01F4209D06279002A06D12B752B76B306A7
S21400450002D52000236A98477FB2002F07DA80235F
S2140045102B752B76730602D5636A20009847F8BD84
S2140045204878023100020343E16285E7627A236835
S214004530D2B29B6A012A13D1638E013B9BB263867B
S214004540638E9BB2002BA7D12975210038310B70E2
S2140045500333637216429FD02000E36898479BE7B8
S214004560DB05A16ADB0DDAB20A70A26A511CA162F1
S214004570A179012904D11B0A5370A36A0133A362EF
S214004580238E013B9BB22386238E9BB2002B00D04A
S21400459082E722003832137004332B75627A022ABF
S2140045A005D11E4200D177E720006369D6E7637A1B
S2140045B0002B00D070E7B30700D46DE72000236916
S2140045C0CCE7C0460C2F0020082F0020F0B50700CF
S2140045D093B0A64B39600800140004919847012355
S2140045E00200052855D00500010012350498006821
S2140045F08446664605201E4200D014E104980068F2
S214004600844666461C20B60700D50CE198488B40C9
S214004610052A41D1026A1343036223002D331E008C
S2140046201B780CA9EDB20B702800924B9847280017
S214004630914B98470021914B30789847E37A7B71ED
S214004640631DDB7FBB71A31DDB7FFB71E37E3B72CB
S214004650237F7B723B6803931800844B984718238C
S214004660052801D00300123300250EAA1580228AE1
S2140046700826029280220299D20191421BD00FD8BE
S214004680802210269201914200D1CFE0102600250C
S21400469011E018251900A9E7C2691343C361BCE7F6
S2140046A0C0220299D201914200D1BEE080220326A8
S2140046B012029142EAD122680692E2680792626983
S2140046C00892227E0992E21DD27F0A9262680592C3
S2140046D0220005990832002900D1A9E0802105981A
S2140046E0490588420ED1D27F002A0BD1D8B2644B3E
S2140046F0256A98470EAA0100624B280098470028B2
S21400470000D090E0637E002B02D0A37E039A9373C2
S2140047100EAE3388039A9381079A069B1343089A32
S2140047201343059A1343029A1343099A120213433A
S2140047300A9A5207134322000832D27F002A01D178
S21400474004321343627E217F920249020A43617F4C
S214004750E07A09020A43611DC97F49040A43A11D84
S214004760C97F09040A43A17A01430A432189FF2924
S21400477000D173E08020400403430A4321002C311B
S2140047800978002903D140498978890701D5802115
S2140047900B433868C1690029FCD103994A6039681F
S2140047A0CA69002AFCD103990DAD0B6080232B70DB
S2140047B0236B6A700E93636BEA707360A36BAA70C8
S2140047C0B360E36B1400F360A300F058E1B2002876
S2140047D002D104982D4B9847431C05D02870000C36
S2140047E0C0B229002A4B98470134042CECD13B0078
S2140047F000243033FC85FC603C617C61BC61FC615C
S2140048003C62BC627C62BC859C701C705C70DC7018
S2140048103868164B984705001E4B1F4998472000DE
S2140048201E4BAD00EF5013B0F0BD0826012542E741
S214004830D27F002A07D02B000096A16A206A0EAA13
S214004840174DA8475BE7226AD8B20D4B0B929847E4
S214004850009601002B000EAA0B98F1E7E17E0029D6
S21400486000D18BE78021C9040B4387E78D40000009
S2140048700004004001540000A1530000F13E000077
S21400488025540000313E000000200041353F000066
S214004890D9540000914B0000254A00000C2F002040
S2140048A0593E0000C2791C23002A0AD0C28D173B4D
S2140048B0002A06D1036802321985197E1142FCD0FF
S2140048C000231800704710B582791C23002A11D0E7
S2140048D0828D173B002A0DD102680420147E044204
S2140048E008D0538BDBB29C061DD00224234203D093
S2140048F01A235483180010BD034202D050831E238F
S214004900F8E70120034202D050831323F2E7102079
S214004910034202D050834223ECE72020034202D019
S21400492050834123E6E7138D0B800023E2E7000067
S214004930F7B506000F0015001720002A24D0F379DB
S2140049400530002B20D000243368019380235B02BF
S2140049500121019A127E0A4217D0727963189BB21F
S214004960395D012A16D01C0089B2013D30000E4B7D
S214004970ADB29847002DE9D1802302225B0201994F
S214004980097E11420CD00020FEBD013B002BDFD17A
S2140049901220F9E7FB5C02341B02A4B21943E4E7D9
S2140049A0013B002BEBD1F3E7A5480000F0B585B03E
S2140049B00600009115001720002A28D0B37905308C
S2140049C0002B24D000243368019380235B0204214B
S2140049D0019A127E0A421CD002AB9F1D00233900AA
S2140049E03B8030000E4B9847002810D100993A883B
S2140049F0631C0A5571799BB201290FD100990234C4
S214004A00120AA4B2CA54013DADB2002DDDD105B0E4
S214004A10F0BD013B002BDAD11220F8E71C00F2E7CC
S214004A20C7480000F8B5584B8000C4582568EB69A5
S214004A30002BFCD12B7EAF7D1F40230030331A782D
S214004A405E78012316401F4219D0E28D002A00D15D
S214004A5072E0A26A511C1378A1626179DBB2012967
S214004A6064D09BB2DB05DB0D2B85E38D013B9BB24F
S214004A70E385002B03D101332B750133AB7502237D
S214004A801F4209D02B752300002233331A70F30718
S214004A9002D52000E368984704231F4227D0A28D42
S214004AA0002A00D16DE06B8BDBB21A0746D43F229A
S214004AB0134045D002221A2113420FD104221E2190
S214004AC013420BD101221321134207D11022422197
S214004AD0134203D12022134204D041212300323353
S214004AE019706A83730702D52000636998471023FC
S214004AF01F4206D02B752B761E4202D02000E3699B
S214004B00984720231F4206D02B752B76330702D5F5
S214004B102000A369984708231F4206D02B752B76E2
S214004B20B30602D5236A20009847F8BD51780232B2
S214004B3009020B43A26295E72B75A0E73722B7E779
S214004B402B8D616ADB05DB0DDAB20A70626A511CD6
S214004B5061626179012904D11B0A5370636A0133CB
S214004B606362A38D013B9BB2A385002BBFD10422B9
S214004B702A75220032321370B307B8D52000236995
S214004B80B4E72B75B3E7C0460C2F00207047000033
S214004B90F0B5094C094A2378002B09D11E00084FAE
S214004BA0084DD750EE500433182BFAD1173B23701C
S214004BB080001150F0BDC0463008002034080020A8
S214004BC08D4B00000C2F002007B508236A46137093
S214004BD001335370013393700133D3700133137173
S214004BE001335371024B98476B4618560EBDC046AC
S214004BF08D40000010B5024B00201B68984710BD82
S214004C003408002010B5024B01205B68984710BDA1
S214004C103408002010B5024B02209B68984710BD50
S214004C203408002010B5024B0320DB68984710BDFF
S214004C303408002010B5024B04201B69984710BDAD
S214004C403408002010B5024B05205B69984710BD5C
S214004C503408002070470000094B196800290BD162
S214004C60EFF31080074A002805D172B6BFF35F8FB6
S214004C7005490870012111701A6801321A607047E0
S214004C804C08002050080020EC000020084B1A6852
S214004C90013A1A601B68002B09D1064B1B78002BC3
S214004CA005D00122044B1A70BFF35F8F62B67047BF
S214004CB04C08002050080020EC0000208023034908
S214004CC05B00CA681A42FCD07047C046000C004021
S214004CD08023DB059A78824202D1002108007047C3
S214004CE09A78172152B2002AF8DB01229A7198703E
S214004CF09A79002AFCD0F0E770B5082806D808F0A4
S214004D000BFD0805053030130B1628000024200084
S214004D1070BD164B1C69FAE7154B1C7D2407A40FC3
S214004D20601C144C4443F2E7104B5C69EFE70F4DF0
S214004D3000242B689B07EAD50F4B984724222B6844
S214004D401340042B10D120000C4B9847AC68A4B23B
S214004D50E8E70B4B00241B789B07D8D5034BDC6891
S214004D60D5E780242402D2E7064CD0E7540800207A
S214004D70000C004000093D00BD4C0000255400001A
S214004D80280C0040006CDC0230B503250A49847804
S214004D90427800780B7D28400935AB4380000343FA
S214004DA0012002403F309201834313437F22E401F7
S214004DB0134023430B7530BD000C0040F7B51E4B67
S214004DC0427807789C465B6901927A425741827A1C
S214004DD08578C678417A047A00924068174A50610E
S214004DE0B80004270122BB43184308231640984303
S214004DF0F600064315402F013500DB189D433D4362
S214004E001440A6012C00114030339C43CB01802176
S214004E1034438C432100194307230198084C034070
S214004E201B0221401943009B1A401303054A0A40FF
S214004E301A4363465A61F7BD00100040540800202C
S214004E40FFF8FFFFFFEFFFFF10B5837A82899B060E
S214004E509205920D1B0C1343184A5360417A037A4D
S214004E60C4880B43818821430B4341780478C901E9
S214004E700B43817889010B431360042C0DD1837B8F
S214004E80418A9B060B43018A0D48090401400B43E7
S214004E90936013681C43146010BD202CFCD1837BE8
S214004EA0418A9B060B43018A0548090401400B43CF
S214004EB093601168034B0B431360EDE75408002022
S214004EC00000FF0324040000F8B508283FD808F0C7
S214004ED023FC123E3E0A0C18051E340002231D4A0F
S214004EE0117D0B431375002030E002231A4A9169A6
S214004EF00B439361F7E70223164A118A0B4313828A
S214004F00F1E70223144A51690B435361EBE702248D
S214004F10124E104D3368124F234333602C83B8472C
S214004F20B3682B622C830024B8477368EB612C832C
S214004F30B84733689BB22B83D5E7022309490A7822
S214004F401A430A70084A10781840FCD1F8BD17209A
S214004F50FCE7C046000C004000100040540800204B
S214004F60BD4C0000280C0040380C004000B5082856
S214004F702FD808F0D1FB122E2E2E0C18051E280056
S214004F800221154A137D8B431375002000BD0221B4
S214004F90124A93698B439361F7E702210E4A138AFC
S214004FA08B431382F1E702210C4A53698B4353610A
S214004FB0EBE702210A4B1A688A431A601B68064A06
S214004FC09BB21383E1E70221064A13788B431370E2
S214004FD0DBE71720DAE7C046000C00400010004070
S214004FE054080020280C004000B5082806D808F011
S214004FF093FB100505280C1507172200002000BD9E
S214005000114BD868C006C00FF9E7104BD868800768
S214005010F9E70D4BD86801231840F0E70B4BF9E78A
S214005020094BD868D0231B011840094BC0184342CF
S2140050305841C0B2E3E7074B1878032318400338FB
S214005040F5E70120DBE7C046000C004000100040FA
S21400505000F3FFFF3C0C0040802303221E21F0B526
S2140050604F4F5B00BB604F4B89B09A604E4A0220A0
S214005070536801248B4353604C4B9847802202A808
S2140050800023120242600422037083724372484B6C
S2140050904270C470847004729847464B0520984747
S2140050A023004549CA681A42FCD00025032605ACF1
S2140050B0210063602800414B65702572657226707A
S2140050C098473F4B0620984701A83E4B4570067010
S2140050D085709847374B062098471023FA681A427F
S2140050E0FCD0002506230126210028002370334B20
S2140050F06660657025726572984780223B7D134313
S2140051003B750527304B9847210030002B4B277006
S2140051106660657065722672984730002B4B98471C
S2140051200323210063600220244B2770657065729C
S214005130267298470220254B9847210004201F4BD3
S21400514027706660657026726672984704201F4B4B
S214005150984706231E4F2100BE7128007E713E71BF
S2140051602370164B66606570257265729847280036
S214005170164B9847174B280098473979164BC9B2F3
S2140051809847164B984204D80020084B984709B019
S214005190F0BD0823BB717B71114B9842F7D8F3E73B
S2140051A0000C00400014004000400041D14C0000BC
S2140051B0BD4D0000C94E0000001000402552000002
S2140051C06D4F0000894D000005520000BD520000E2
S2140051D0000400403953000055D70000808D5B0066
S2140051E0001BB70004228240044B05485B68184049
S2140051F01040431E9841C0B27047C0460018004099
S214005200FC0700004023054A51690B435361012304
S214005210034A137011781942FCD17047000400400D
S2140052200018004070B54B7805000C78002B02D0B3
S2140052308023DB001C434B7A002B02D080231B010B
S2140052401C434A68012A13D9531E13400220002B20
S21400525007D0802312049B001A43144308E001334E
S21400526040009042FBD38022520114431B041C438F
S2140052700B7A002B02D080239B011C4328000B4E88
S214005280B0470028FAD10A4B98478021094BAA005C
S214005290D218136A49000B401C4314622800B0471A
S2140052A00028FBD1044B984770BDC046E55100006E
S2140052B0594C0000001800408D4C000010B504004A
S2140052C02000084B98470028FAD1074B9847074B11
S2140052D0A400E4188023226A5B0013432362044B75
S2140052E0984710BDE5510000594C000000180040DA
S2140052F08D4C000010B5040020000A4B984700288B
S214005300FAD1094B9847094BA000C018036A084A0F
S2140053101340036280235B00026A1A42FCD1054BED
S214005320984710BDE5510000594C00000018004099
S214005330FFFEFFFF8D4C0000F8B504002000124B66
S21400534098470028FAD1114F0834A400104B98470C
S214005350E059104B0007000F9847E659E459F60449
S2140053600D4BF60F0500240C9847002E08D1012C93
S21400537004D928002100094B984705002800F8BDED
S2140053800134E540FAE7C046E55100000018004049
S214005390594C0000F94C00008D4C000055D7000019
S2140053A010B50400074B9847074BA000C1184023D0
S2140053B00800CA6F1A43CA67C26F1A42FCD0034B72
S2140053C0984710BD594C0000041800408D4C000052
S2140053D010B50400074B9847074BA000C1184023A0
S2140053E00800CA6F9A43CA67C26F1A42FCD1034BC1
S2140053F0984710BD594C0000041800408D4C000022
S21400540070B50D00054B040098470F222B7820340A
S2140054101340034AA400A35070BDC046D1530000F9
S2140054200018004010B50400064B98472034064B81
S214005430A400E458054B2407240F98472000044B8B
S214005440984710BD594C0000001800408D4C0000D5
S21400545039530000D37830B5002B35D11478802C22
S21400546003D0802324065B02234302255478AC43F2
S21400547006D19478002C24D18024A40223434160D2
S2140054805478013C012C01D8124C2340A0248DB244
S214005490E4052C431C438462D0240D0C24062C43C4
S2140054A01C438462D478002C0AD15B0303D593781E
S2140054B0012B0CD181615378013B012B00D8816010
S2140054C030BDC024E402D9E741600023DEE7416135
S2140054D0F1E7C046FFFFFBFF10B503000A004409D2
S2140054E0C1090020814202D10449E00140181F2171
S2140054F00B401E399940024B984710BD00280040CB
S214005500555400007047000010B5054B9847054BF2
S2140055109847054B9847054B9847054B984710BD4D
S21400552059500000554C00005935000069360000FF
S21400553005550000F8B500250B4B8000C4582368BD
S214005540626BDE6AA36B13401E40084BEF5837426F
S21400555005D063195B68200098472368DF6204352E
S214005560302DF2D1F8BDC046242F0020180A0100C5
S21400557010B50020014B984710BDC04635550000B9
S21400558010B50120014B984710BDC04635550000A8
S21400559010B50220014B984710BDC0463555000097
S2140055A0931C9B001950037E022A04D10E3213432B
S2140055B0037600207047032A01D11D32F7E7012148
S2140055C091400B43F4E7000070B50126144B8000B1
S2140055D0C4582368227E657E9B7A15401D4035425E
S2140055E004D0A3682000984723689E72022635429E
S2140055F004D0E3682000984723689E721026354240
S21400560004D023692000984723689E7220263542DE
S21400561004D063692000984723689E7270BDC04618
S214005620302F002010B50020014B984710BDC04613
S214005630C955000010B50120014B984710BDC04663
S214005640C955000010B50220014B984710BDC04652
S214005650C955000000B51723042809D80D4B08F0DB
S2140056605BF803090D1115005A69114359610023AF
S214005670180000BD9A6911439961F8E7DA69114389
S214005680D961F4E71A6A11431962F0E75A6A1143BE
S2140056905962ECE7000400407FB50C4B010018008F
S2140056A001AA70C870C2019A91420AD05A68914203
S2140056B009D09B6800208B4201D10230C0B204B0F2
S2140056C070BD0020FAE70120F8E7C046480A01004E
S2140056D0F0B5924B05008DB008000E0014009847F8
S2140056E01B2302AA13725372023393728C4B0190DF
S2140056F00C3306AA83CB83C283CB83C20023AB6062
S214005700EB602B616B612B766B76019B9A00854B69
S214005710D55023002E6034331B78AB76E378082B05
S21400572004D1019A1720D20700D5E3E001222B719D
S21400573033680520134200D0DCE00221F37A1730EC
S2140057400B4200D0D6E033680B4000D0D2E0217C7C
S214005750002908D005A9CB70237E207D0B70724BE4
S2140057608A704A709847237F002B0ED000220123B0
S21400577005A9CA7024328B70A2184B701F33E31829
S21400578012781878684B0A7098471020019A02A978
S214005790D200091888581021019B02AA5F007B1CC2
S2140057A09B005218D158C0B2604B9847E378082B3C
S2140057B010D1019B012B0DDC1021FB1C02AA023725
S2140057C05218BF00D05902AA9B005218D158C0B236
S2140057D0564B98470820237803A9019A0B7002AB12
S2140057E01B189F5C524B38009847524B380098471E
S2140057F0E279E3781343A2881343627A002A02D040
S214005800802252021343A27A002A02D080229202F9
S2140058101343E27A002A02D0802252031343227BEB
S214005820002A02D08022920313436278A178920164
S214005830C9010A43296813430A69002AFCD1336068
S2140058402A681369002BFCD1A3793373637B5A1E35
S2140058509341A27B9B00002A01D0012213432968B2
S2140058600A69002AFCD1FF323271002B04D0296865
S2140058700A69002AFCD17371237A73732B681A693C
S214005880002AFCD12A79042A16D0082A34D01720F8
S214005890002A2FD11A69002AFCD1238DB3822A68E8
S2140058A01369002BFCD1638DB3832B68186900281D
S2140058B0FCD1A38DF3831DE01A69002AFCD12300D6
S2140058C028331B7833752A681369002BFCD1230014
S2140058D029331B78F3762A681369002BFCD1230042
S2140058E02A331B7833772B6818690028FCD12B34B1
S2140058F0237873770DB0F0BD1A69002AFCD1A36A2D
S21400590073612A681369002BFCD1E36AF3612B6884
S21400591018690028FCD1236B3362EBE79956000028
S214005920480A0100302F0020D954000055560000C8
S21400593001540000A1530000020003681869002803
S214005940FCD11279042A08D0082A09D01720002A88
S21400595005D189B29982100001E0C9B21975704765
S2140059605961FCE703681A69002AFCD11A710168BC
S2140059700A69002AFCD180325A715A7952B2002A3A
S214005980FBDB02681369002BFCD10179042907D0E0
S214005990082908D01800002904D1908A80B201E0B6
S2140059A0107DC0B270475069FCE7000082B0EFF38C
S2140059B010835A425341019372B6BFF35F8F0022A1
S2140059C0024B1A70019802B07047C046EC000020E7
S2140059D07F220240131E09D00F2303405B00C0093C
S2140059E01818142302385843014B1B181800704728
S2140059F074080020F0B58D7985B06AB20E00544B5D
S214005A002800002A48DA0F2798472F400197038A74
S214005A10816802937688C3680400F618C660877C9F
S214005A208E4225D08D1B4B4BADB29D4206D9180039
S214005A300299494B9847474B5D1AADB20021BB0708
S214005A4007D5464B0299280098478BB259425941D0
S214005A50C9B20222A37C4900934319432B00626813
S214005A60A174921901993E483E4CA04705B0F0BD7E
S214005A7002233800184005D062689F43A774921925
S214005A800023EFE701239F432368A774002BEDD084
S214005A902A0031009847E9E798470F232B400293E6
S214005AA0038A04000193837C37885B0711D5C2689C
S214005AB043689446634403930199284B806898474B
S214005AC0029B0A00013B28499B0159180398274B63
S214005AD09847E368FA18A368E2609A4200D9E36040
S214005AE0B288BA4227D1E668B34224D09D1B194F2C
S214005AF0ADB20199BD4216D9174B380098477B1AAC
S214005B00019A9BB216481A4F9A4211D90423A27CD6
S214005B101343A374029B5A1E134B9201D218019B87
S214005B200299B847A2E70D4B280098476B1AE7E79B
S214005B3062689219F4E70122A37C9343A374236856
S214005B40002B00D192E72A00E1680020A2E7C046B9
S214005B50D1590000FF1F000035DA000061D80000B0
S214005B60FC2F0020A56900003C2F0020199A000099
S214005B70F1690000052210B5054B064C1A7020008E
S214005B808021054B984700212000044B984710BD04
S214005B9072080020FC2F00202B69000045690000D9
S214005BA037B504001D4B98478023226801AD9372D9
S214005BB028001B4B9847032329006B702000194BC5
S214005BC0984719492000194B9847194D194B02223E
S214005BD000212000A8470022174B11002000A847EC
S214005BE0164B012200212000A847154D0222002155
S214005BF02000A847002220001100A847012200210B
S214005C002000A84721680F4A0B891A408023DB0032
S214005C10134300220B810C4B1A7037BD6928000015
S214005C2041670000516700007C310020396A00009F
S214005C30D9650000B55D000069610000895C000060
S214005C4029660000FFF3FFFF72080020032210B54C
S214005C50074B084C1A7008492000084B9847002349
S214005C60074A190092682000064CA04710BDC0469F
S214005C7072080020FC2F00207C310020396A0000CA
S214005C8064310020A569000010B589790C4B4AB232
S214005C90002A0BDA1B78012B02D10A4B984710BD5D
S214005CA0042BFCD10848094B9847F8E71A78022AD3
S214005CB002D102321A70F2E7032AF0D1F2E7C046A8
S214005CC0720800204D5C0000FC2F00202B690000AD
S214005CD070B51D4D1D4E2B88B489E41AA4B2002C55
S214005CE01BD11B4A11885B189BB21380F2889A421C
S214005CF003D0184B1B78002B07D00422164B1749ED
S214005D001A701748174B984770BD7369002B16D04A
S214005D109847002813D02C80B4893F2C0FD9002236
S214005D2040240C4B1A702B88B2680021D2180C48FD
S214005D3023000D4EB0472B88E4182C80E4E70122A0
S214005D40044B1A70EFE7C0466E080020643100204E
S214005D50700800206C080020720800207C310020AB
S214005D60FC2F0020396A0000A569000010B5014B21
S214005D70984710BDBD2800000122034B1A70BFF3E0
S214005D805F8F62B67047C046EC000020084B1A8B47
S214005D90920606D4D0210901DA680A408A42FBD16D
S214005DA0704780225200D9681142FCD0F8E7C046FE
S214005DB0000C004070B5274E0C003378002B06D040
S214005DC0254B1B69002B00D098470023337023888F
S214005DD0082B02D0214B984770BD214C1E4D2378CE
S214005DE02B7063786B70E278A37812029B186B8036
S214005DF06279237912029B18AB80E279A3791202AA
S214005E009B18EB80174B98470028E3D02B787F2B06
S214005E100DD90021144B22001980144B1448198008
S214005E200223144C33703E33A047134BD3E7EB8862
S214005E30002B01D1114BCEE700210B4B220019801D
S214005E400A4B0C4C19800123094833703F33A04796
S214005E50C2E7C0467208002064310020755B00006F
S214005E607C310020F5280000700800206E08002015
S214005E70FC2F0020F1690000D15C00004D5C0000A2
S214005E800023F0B585B003AC237001336370A370B4
S214005E90E370164B05001B780193834224D000283C
S214005EA00ED0265C124FBB5DFF2B00D1FEE7114BD8
S214005EB09847BB5D0133BB55002801D00E4B984771
S214005EC0019B002B0ED0E45C094E335D002B00D105
S214005ED0FEE7084B9847335D013B3355002801D059
S214005EE0054B9847014B1D7005B0F0BDEC0800202F
S214005EF0AC2E0020AD590000795D000070B5084C4E
S214005F00084D06212000A84704212000A8470221AA
S214005F102000054B98470220044B984770BDC046AA
S214005F20FC2F0020BD6500009D650000815E00001E
S214005F3070B50B4B98470B4C0B4B02212000984733
S214005F400A4D04212000A847094A0A4B06212000D2
S214005F50984706212000A8470320074B984770BDA6
S214005F608D5D0000FC2F0020BD6500009D650000D3
S214005F70FD5E000079650000815E000010B5064CED
S214005F8004212000054B984702212000044B984727
S214005F900120044B984710BDFC2F0020BD65000073
S214005FA09D650000815E000070B5040001000A4B8C
S214005FB00A4898470A4B200098470300827C012035
S214005FC0024207D01D6882439A74002D02D0220038
S214005FD0D968A84770BDC046E1680000FC2F0020C5
S214005FE0D159000000207047024B1B68188A8004B5
S214005FF0400D7047FC2F0020024B1B68188A80B2A9
S2140060007047C046FC2F0020F7B50400002701ADFE
S21400601028000C4B984720000B4B98470B4E290046
S21400602030000B4BEF702C7098470F213A00214040
S2140060303000084B98473A0030002100064B98473E
S214006040F7BDC04641670000A95F0000FC2F002096
S2140060505167000001660000B5660000F7B506004F
S21400606001AC294B20000F0015009847267000232E
S214006070082D10D90123102D0DD90223202D0AD961
S2140060800323402D07D90423802D04D980235B00E9
S2140060909D4224D8FB3B637030001C4B984703237B
S2140060A005821F40012F28D1013B194DE3702100C6
S2140060B02800184B9847041E1BD10F21164B0200D0
S2140060C031402800154FB84722003100144C2800F4
S2140060D0A047012231002800A04701200AE08023C3
S2140060E09B009D4202D8FB3BFF3BD4E70D4B9D42F5
S2140060F001D90020FEBD0723CDE7022FD5D0032F00
S214006100F7D10423D1E7C04641670000D15900000B
S214006110FC2F002051670000F5590000D9650000EB
S21400612029660000FF03000010B50100014B02487D
S214006130984710BD0D690000FC2F00200F2310B5F6
S214006140034004000020032B07D821000348044B1B
S21400615098472000034B9847012010BDFC2F0020D5
S2140061602B690000A95F0000F8B5294F3B78012B8A
S21400617041D1284A284D0E881488AB89A21993422B
S21400618001DA1E1BB6B2AB68320018192349244B3D
S214006190A4199847A3B21F4C2380402E05D1214E48
S2140061A0E9883288D21891420FDCAB816B69002BEC
S2140061B008D09847002805D1052300203B701A4BCD
S2140061C09847F8BD194B9847FBE7AA899A420BD126
S2140061D06B69002BF0D098470028EDD033882288D2
S2140061E09B1833800023238040230C4A0021104C48
S2140061F01048A047E5E7022B01D10F4BE3E7064B1B
S2140062001B69002B00D0984700233B70D9E7C04697
S214006210720800206E080020643100207C310020C7
S214006220199A0000700800203D6100004D5C0000D7
S214006230F1690000FC2F0020D15C00000F2370B530
S214006240034006000024032B0ED8084B9847050091
S214006250074B310007489847AB7C0134234203D0F4
S214006260A343AB742B689847200070BDD15900003B
S21400627045690000FC2F0020F0B585B003921E0093
S21400628002000F231A4002900D000192032A03D940
S2140062900027380005B0F0BD02984A4B9847071E05
S2140062A0F6D1494B029898470400484B984701237B
S2140062B0A27C1A4204D00028EAD0454B9847E8E76B
S2140062C01343A374002801D0414B9847039B022236
S2140062D063600023E3600A9BA660236001231D40E1
S2140062E06900A57C95430D4304218D436946097AD0
S2140062F0A57449B200293BDAEDB2002E26D0354B04
S214006300B6B29E4206D91800218A334B9847314BC5
S2140063105E1AB6B2AB0707D5218A30002F4B9847D6
S21400632089B248424841C7B20120022338404100A2
S214006330A07C98430843A0743300039A0199284828
S214006340284CA04743425841C7B2A2E7154202D0A4
S2140063509543A574F0E79D43A5740A9B002B01D1D5
S214006360012796E70021029A08000A9B9847F7E75C
S214006370002E22D0278A174DB6B23900AE4216D963
S214006380154B280098476B1A9BB21548164D039A72
S214006390BB4209D20423A27C1343A374019B5A1E5A
S2140063A0124B9201D2183B000199A847CAE7300069
S2140063B00A4B9847761AB3B2E7E7A27C9A43A274D0
S2140063C0CBE7C04629610000D1590000AD59000056
S2140063D0795D0000FF1F000035DA000061D800007C
S2140063E0FC2F0020A5690000F16900003C2F00206A
S2140063F08022024B10431B6898727047FC2F0020C7
S214006400024B1B68987A4006400E7047FC2F00200F
S214006410014B98609981704764310020012010B5C7
S214006420034B1A68138903431381024B984710BD28
S214006430FC2F0020815E0000F8B501270320164BD4
S2140064409847164C164E2268042113892000BB4339
S2140064501381144AB047144A00212000B04739007F
S214006460124A2000B047124A02212000B047114DC0
S21400647004212000A84700212000A847390020005A
S214006480A84702212000A8470B4A06212000B04753
S21400649006212000A847F8BD815E0000FC2F0020E2
S2140064A0796500007D5F00006D5D0000A15B000067
S2140064B0315F00009D650000FD5E000073B50F4B68
S2140064C0984701AC06000E4B200098470323822114
S2140064D00C4D2200C905A37028000B4B98472800D6
S2140064E00A4B98470A4B98470A4B012098470A4B95
S2140064F09847002E01D0094B984773BDAD59000050
S21400650051700000FC2F002061700000696A0000D6
S2140065108D5D0000815E000039640000795D00003A
S21400652010B5094B98470020084B9847084B9847EA
S214006530084B04009847002C01D0074B98470748A3
S214006540074B984710BDC0461D640000815E0000E2
S214006550AD59000065650000795D0000FC2F002045
S2140065607D6A0000034B1A78002A01D000221A70B8
S2140065707047C046ED0800200B002E339B0010B578
S2140065801A50AA22044C52004900835A095B0B4356
S2140065908352002010BDC0466C0A0100064B49001D
S2140065A0CB5AAB21026849009383425A1A4342529F
S2140065B002680020138370476C0A0100054B4900EF
S2140065C0CA5AAB214900435A9343435203680020FA
S2140065D09A8270476C0A010010B58C00A4183434F7
S2140065E0A40004194018593004496360FF3003784A
S2140065F08A5C13430370002010BDC0467A0A01006F
S2140066008B009B18343310B59B000400C318002081
S214006610641858605934034BFF349A5C23789343CC
S214006620237010BD7A0A01000F2370B50B40C41802
S21400663061341F4EFF342578B65C35432570002A3A
S2140066400FD10268002B03D1FF320333937221E08F
S2140066505B01D21849B2FF3202230029F6DB012380
S214006660F4E7012A0ED10268002B02D1FF320C3368
S214006670ECE75B01D21849B2FF3208230029E5DBBC
S2140066800423E3E7022A07D102685B01D31810222D
S214006690FF339A72002070BD032AFBD102685B01AB
S2140066A0D21849B2FF3240230029CFDB2023CDE7A2
S2140066B07A0A01000F2370B50B40C4181F4D6134D1
S2140066C0FF34AE5C2578B5432570002A0FD10268EA
S2140066D0002B03D1FF320333537221E05B01D21843
S2140066E049B2FF3202230029F6DB0123F4E7012A30
S2140066F00ED10268002B02D1FF320C33ECE75B01AF
S214006700D21849B2FF3208230029E5DB0423E3E769
S214006710022A07D102685B01D3181022FF335A728F
S214006720002070BD032AFBD102685B01D21849B273
S214006730FF3240230029CFDB2023CDE77A0A010071
S21400674000230370437083700133C37070470000EA
S2140067500F23F0B504000D78C8782B406DB20428DE
S21400676060D8226806F0D8FF030849879D000020FD
S21400677008335B01D054F0BD5E019219FF325578A4
S2140067801C206D07F7D1702557782F42F3D10B38B0
S2140067905070226808335B01D2182F30507122687F
S2140067A0D31880221A718A784B4B002A1BD080207F
S2140067B09A19546800060443546054692043506193
S2140067C007254A789B195868444C2A4012072040EF
S2140067D01043586049785A692940090722400A43FD
S2140067E05A610020C7E79819426852005208426072
S2140067F04269520052084261E2E758011218FF321D
S214006800002D27DA702657781C203742B3D15678E9
S21400681004303043507018002268083040011218C7
S214006820802010710724ED0F5B002B4A5B19487817
S2140068301B01D3185A682040284C00072240024308
S2140068405A608878002842D08022596812060A4387
S2140068505A60C6E756781C20760700D08BE7567835
S2140068601A38304350701800226808304001121859
S21400687040205071D6E758011218FF32002D08DA72
S214006880702657781C20374200D074E756781430AC
S214006890BFE756781C20760700D06CE75678193884
S2140068A0DFE758011218FF32002D08DA70265778F5
S2140068B01C20374200D05EE756782430A9E7567889
S2140068C01C20760700D056E756781838C9E75A686D
S2140068D0520052085A604EE7BC310020FFFFFF8F7F
S2140068E00F230B40026808335B0149B2D218002917
S2140068F006DA802111710268D3180222DA71704715
S214006900402151710268D3180122F7E70F230B408C
S214006910006808335B01C31849B29879002902DA87
S2140069208006C00F7047C006FBE70F230B400068C9
S21400693008335B0149B2C3182022002900DB10226D
S2140069405A7170470F2330B50B4002685C0112196C
S214006950FF3249B2D579002912DA20210D420ED035
S2140069605171026849181219FF32147A0C4206D087
S2140069701172026808335B01D31802221A7130BD07
S21400698010210D42FBD05171026849181219FF32CE
S214006990147A0C42F3D01172026808335B01D318E4
S2140069A00122EBE770B50C00056808346401655DEC
S2140069B01C266D066D0F14D04D010B499B0449191A
S2140069C00D000A614A69094900260A406A616A6937
S2140069D0990C930B9B030B436B6103681C19802374
S2140069E06371300070BDC046BC310020FF3F00F030
S2140069F070B50C00056808346401655D1C266D07DB
S214006A0013D00B4D49014A519B0469184A681D0969
S214006A10084B002613402B434B604B689B0B9B0395
S214006A204B6003681C1940232371300070BDC046BC
S214006A30BC310020FF3F00F0094B19605A68094935
S214006A401140802292020A435A605A68920B9203BF
S214006A505A60402203680020FF335A717047C046D0
S214006A60BC310020FF3F00F00223026811780B4380
S214006A70137002689378022BFCD0704702210268DC
S214006A80064B938202689383026813788B431370D5
S214006A9002689378022BFCD07047C046FF030000C4
S214006AA0F0B5D74E85B037683D682B78DB0900D146
S214006AB022E12B8C002B00D12DE2288CD14B80B20A
S214006AC0984703000400032008335B01ED18ED79B6
S214006AD0EAB20192024231D00121CB4A94460A0022
S214006AE06546A2402D6895432A0065462A603A68A6
S214006AF0D218D0713A19AE3212780A421ED0C34A62
S214006B00600114703968595CC14B8907890F1B18DE
S214006B10012900D0B4E059688904890C518059686D
S214006B200901890C91805A68920B92035A60A31C43
S214006B301B01FB185B68B549380098470423019A87
S214006B401A4238D02200AE4B08321868530101684A
S214006B509C465B5C9B065B0F0293022B00D0A4E076
S214006B6063465B5C9B079B0F012B00D09DE0A84F04
S214006B7065017D192F0003950837BF78FD0700D4FF
S214006B8093E0A340A04A1168994300231160039A3A
S214006B909372042203686344DA710319AE331B78D8
S214006BA0029A134207D0102398494B702301C3184A
S214006BB00C709B6A98470822019B13421DD0012344
S214006BC0A34091490868984308603068A318016894
S214006BD05B01CB18DA710319AE331B789B070CD513
S214006BE08B4B62019B181F22DB89884913404B7030
S214006BF02301C3180C709B6A98471022019B13420E
S214006C001FD00123A34080490868984323000860EA
S214006C103068083301685B01CB18DA710319AE33AC
S214006C201B785B070DD5794A794B61015B181470A8
S214006C305B6800211B019B0C53802301C318DB6A91
S214006C4098472022019B134200D1F9E10123A3407B
S214006C506D49086898432300086030680833016867
S214006C605B01CB18DA710319AE331B781B0700D40F
S214006C70E6E166490C7024010419236B9847DFE1AE
S214006C805968644D0901890C518088B25968890495
S214006C90890C9180596829405960002800D046E741
S214006CA05B689B049B0C538041E75201535C584D34
S214006CB09B065B0FAC466701032B11D1535C9B0709
S214006CC09B0F012B0CD13900002361448B720421E9
S214006CD003689B18D97103689A18102353716AE7E2
S214006CE03A0000236244937222000368083252017D
S214006CF09B180422DA715EE72C8CA2B20192002A5D
S214006D002CD1AB8B55329BB20293AB23FF325B0088
S214006D10FB5ABD5A80271D40029B019C1D407F00E8
S214006D203D4B6200D35A029A134202D03268126870
S214006D3093832B420ED03949062C04D1344B1B8941
S214006D401B093B400B60230032682E339B009B5888
S214006D50100098470134072CE2D171E13E00593605
S214006D60FF36019A01211A41DCB20A4200D1CCE07A
S214006D701A00083251016918C81D0390C879317A83
S214006D800292C0B2327801401140602210421AD0FE
S214006D905A01AD184022FF35287A10420DD02A72CB
S214006DA0C03A14431E4A94716022114200D147E152
S214006DB01B01FB18E0331B6852E02022287A1042A1
S214006DC0F2D02A72EEE7102210422BD01021039A3E
S214006DD011701021FA186132FF3212780A4200D17F
S214006DE02EE10B4A5901521852681B01FB189204F7
S214006DF00B49DC33920C1B680A8038003EE7C0461D
S214006E00F008002085DB00000009002004090020AF
S214006E10BC310020FF3F00F06C0A0100F40800209F
S214006E20F8080020032210422ED002205A01AD1886
S214006E30FF352E7A064215D02872802581486D428D
S214006E402C438471804CA218103252689204920C23
S214006E5042808A0700D1F3E00D331B01FB185B6804
S214006E607849CAE70126287A3042F2D075482E7251
S214006E708471754CA41862689204920C0280626851
S214006E801201920C8280E4E70C2210423DD00820CA
S214006E905E01AD19FF352A7A02421ED028726A4872
S214006EA080190226857E354202D0857EB5438576DA
S214006EB08020404204436348029A84713868520135
S214006EC08218D279920700D5BAE00C22114200D17E
S214006ED0B6E01B01FB18D8336DE704202A7A02427D
S214006EE0F3D02872584880190226857A354202D097
S214006EF0857AB54385725348029A84713868520180
S214006F008218D279D207E0D59AE001330136082BF1
S214006F1000D026E794E00423AC8BA4B21C4226D013
S214006F20AB834A4B1B689C4601231D002A00614622
S214006F309A40114210D019003A6808314901885C1D
S214006F408006400F032807D1885C8007800F012841
S214006F5002D15218102111710133082BE6D13B00E3
S214006F60A5331B78DB0702D57B68380098470823D3
S214006F701C420CD00021354A3068116002689383A9
S214006F800300A5331B789B0701D5836898474023E9
S214006F901C4209D03068026893830300A5331B782F
S214006FA0DB0601D54369984720231C4209D0306888
S214006FB0026893830300A5331B781B0701D503697A
S214006FC0984710231C4209D0306802689383030058
S214006FD0A5331B785B0701D5C368984780231C42FE
S214006FE00CD00021194A30681160026893830300B0
S214006FF0A5331B789B0601D58369984780235B00E1
S2140070001C420CD00021114A30681160026893833C
S2140070100300A5331B785B0601D5C3699847802318
S2140070209B001C420CD00021084A306811600268A0
S21400703093830300A5331B787F2B01D9036A9847F7
S21400704005B0F0BDF8080020BC3100200009002083
S214007050002303220370013343708270C3707047AD
S2140070600023F7B504001700614A0D001360614A5B
S214007070216010600120604901AE8A6902438A617E
S2140070807370F3700633B0703370310017305B4B9B
S21400709098470623310033701920584B98476A46A4
S2140070A0BB78694613700420554B9847554B04200F
S2140070B0984701222B7813432B70AB78DB07FCD460
S2140070C01F21514A13685B0B0B408B4200D10523EE
S2140070D0288D4E4E0B409B01304003432B85136892
S2140070E09B0C0B401F2B00D1023B1F20298D034019
S2140070F081430B4307212B851368DB0D0B408B4226
S21400710000D103232A8D0B4041491B030A407F21EF
S21400711013432B852B783A780B40D20113432B7000
S2140071207A782B787E390A40033192008B433948AF
S21400713013432B706862FB78012B4FD1226808310D
S21400714013898B431381802200215200324B9847CB
S21400715022000021231D243202C39342FCD12100C9
S2140071600022A4311A605A609A60DA6010338B42AB
S214007170F8D11A7023002100A5331A7000220133BB
S214007180AE311A701A7201338B42FAD123002200F4
S2140071900021B833D43202C39342FCD1210000222E
S2140071A05531FF311A605A609A60DA60103399429E
S2140071B0F8D1AA235B00E2520233E25223000022F7
S2140071C059336134FF33FF341A701A7201339C420C
S2140071D0FAD14022114B00201A60FEBD002BB2D11E
S2140071E00C2522681389AB4319431181ABE7C046CF
S2140071F000090020F008002000040040D9540000D8
S21400720001540000A15300001C6080003FF8FFFFFF
S214007210FF8FFFFFBC3100202B9A000000E100E04A
S214007220FEE700001148124970B5884204D00023DA
S214007230104CCA18A24213D300210F4B0F4A934298
S21400724012D3FF210E4B0F4A8B43936080230E4AC6
S21400725051680B4353600D4B98470D4B9847FEE71C
S214007260C55804331560E4E702C3E8E7D812010006
S21400727000000020C0020020C00200200C330020C6
S2140072800020000000ED00E000400041D199000021
S214007290FD8D000070B50E0014001500002808D003
S2140072A0012040420CE0074B013D1868064B1B6866
S2140072B09847611B7118002DF5DCE043C01720408D
S2140072C070BDC046C4320020BC320020013870B504
S2140072D00E0002280DD80C008D18A01BAC420AD058
S2140072E0054B21781868054B01341B689847002821
S2140072F0F3DA0120404270BDC4320020C0320020C4
S214007300054B02001968002901D104491960186864
S21400731082181A607047C0460C09002010530020DF
S21400732001204042704780239B0100204B6070473D
S214007330002070478021034A490213685B181360D7
S2140073407047C046E42C002073B56B469C1D002396
S21400735006000D00238021003000034B98470028CC
S214007360F9D123882B7073BDC748000070B50400A0
S2140073700D00A9B22000024B98470028F9D170BD35
S214007380A5480000F0B585B001AC2000174B984723
S21400739006230026164D6370043B22002670A37059
S2140073A0144902AC2800144B98472000134B98470A
S2140073B0022301272200237131002800104B26707B
S2140073C0E6706670A7709847310028000D4EB047EB
S2140073D02200390028000A4B984739002800B04799
S2140073E02800094B984705B0F0BDC046493200005A
S2140073F07409002000300042553200005933000066
S2140074006D330000D1330000E5320000802010B557
S214007410114C124B2C222100C0039847230029331D
S2140074201B78552B16D00E4BFE226360A3600023FC
S2140074309205E3602361A361E3612362094B226046
S21400744062612200A38400230832D377E21D283429
S214007450D377237010BDC046482D00209939000010
S21400746000F07F45FF0F0000F8B50E4C000204192F
S21400747020000D4B0E00984700280ED13500771CD3
S214007480FF37A01B401940222900084B98470028C8
S21400749006D14035BD42F4D1F8BD01204042FBE79D
S2140074A00220FBE700A00300193A0000D5380000D0
S2140074B0074A13780133DBB2052B01D013707047EF
S2140074C000231370034A01331370034AF6E7C046DD
S2140074D070090020202E0020E02C002010B5114B53
S2140074E01B78002B1DD0104C104B22881B889A420C
S2140074F017D00F4B0F4898470F4B104A1B68104980
S214007500C01823885B00995223880E4A9B00985027
S214007510238801339BB2238023887F2B01D9002345
S214007520238010BDF02C0020BA0A0020BC0A0020E0
S21400753065590000FC2D0020E42C0020BA0900202C
S2140075400F270000C00A0020F0B587B072B6BFF360
S2140075505F8F00243C4F3D4D38003D4B2C709847C4
S2140075603C4E21003368C318019338003A4B9847C5
S2140075703A4B3B4A9C461F6813680393394B18687E
S2140075805968049005916146346000200C60002123
S21400759014601860596001232B70BFF35F8F62B6CA
S2140075A0019BA34208D100232F4A13602F4A136081
S2140075B02F4A136007B0F0BD2E4E0198B0472E4BF1
S2140075C00290380098472D4C00222D4BA0470022F1
S2140075D02C4BA0472C4B984702992C4B9847224B94
S2140075E02B4D18603800B047A9692A4B9847071CEE
S2140075F00398B047274BE9699847274E011C381C6B
S214007600B047264B071C049805999847296A214BD2
S2140076109847011C381CB047214B9847214A224BFB
S214007620A047194B98470299184B98470F4B18607C
S214007630114B01989847FC2300229B05A047124B4C
S21400764098470B4B1860B5E7FC2D0020EC00002097
S21400765065590000E42C002039590000B4090020C8
S214007660D02C0020D82C00203C2D0020382D0020C7
S2140076701C2E0020E9EB000055070100FDFA000073
S21400768000004E400000E04069080100B1E1000043
S214007690482D002091E500008DDE0000C5DC0000CE
S2140076A0C5070100350D27BC46C300400023F0B5D2
S2140076B0844CA5440793844B0393002306930293BC
S2140076C000231A000DA95A520233122BFBD17F4B0E
S2140076D0039A9A422BD90022069B12A90DAD545B41
S2140076E05800023201334452DBB2122AF7D1069C0C
S2140076F0069B0934773BE4B2082B00D9D3E0029806
S214007700734B9847002800D0D3E0029B01339BB20E
S2140077100293039B01339BB20393079B039A0433A4
S21400772007936C4B9A4200D1C2E00694C8E7002645
S2140077300027039B684D02339BB201931C0008335D
S2140077400493049BA34200DB95E00022634B3000C9
S2140077503900634CA047079A624B04900591D058B5
S214007760614B9847049A059B604D08900991A8477D
S2140077705F4D0022002306000F00A8470028AAD06D
S21400778000225C4B300039005B4EB047089A099BDC
S214007790A0475A4B984700240DAB1881019B514ACD
S2140077A09B00D3180A93504B089401934F4B0B93AE
S2140077B00A9AA300D058019B9847049A059B0B9EF3
S2140077C0B0470022002306000F00A847002809D073
S2140077D008984B4B984732003B003F4EB047494B0A
S2140077E0984708900134092CE2D100250195019BA9
S2140077F0042B62D0052B4DD10CAB5B890CAAD38130
S2140078000A9A6B00D058384B9847384C02000B0049
S21400781004980599A04700220023354C06000F0067
S214007820A04700281FD00022324B30003900324CCF
S214007830A047334C060008980F00A04702000B0034
S21400784030003900264EB0470DAB0600585B0F00DF
S214007850A047214C02000B0030003900A047274B00
S21400786098470DAB5853019B023501339BB20193E9
S214007870092BBCD12FE71B4AA30098581A4B9847F0
S21400788002000B0030003900A847013406000F0044
S214007890A4B256E7019B002BB2D00DAAAB1ED35A5A
S2140078A00DAA5353ACE7082C00D932E752A926E7B5
S2140078B0002093239B009D44F0BD052302350193D1
S2140078C09AE7C046B4FDFFFFFAFF0000F30300008E
